:060000000A128A11142906
:10000800F000030EF1000B1D0E20710E8300F00EA0
:10001800700E09006221A20A22080A3C031D162854
:06002800A201880A080095
:100200008A010A140F3982073F3406345B344F34B5
:1002100066346D347D3407347F346F3477347C3406
:1002200039345E34793471343021452151215E21D5
:100230000313831285010508002187000618222177
:10024000861829214C2106182329051A8501850ABB
:1002500008004C2186182A298503051B8501080002
:10026000031783168801890103138316850187010B
:100270000614861403138312850187010313831662
:1002800088010313831288010800031383160F17D4
:100290008F120F120F1408003230A000A00B4E294D
:1002A00008000313831681128111011581140114B2
:1002B0002C300B1103138312622108008B178B164D
:0C02C0008B1208009E3081000B1108001A
:04400E00C430FF3F7C
:00000001FF
